{
  "contractName": "FundRaise",
  "abi": [
    {
      "anonymous": false,
      "inputs": [
        {
          "indexed": false,
          "internalType": "uint256",
          "name": "amount",
          "type": "uint256"
        }
      ],
      "name": "Donated",
      "type": "event"
    },
    {
      "anonymous": false,
      "inputs": [
        {
          "indexed": false,
          "internalType": "uint256",
          "name": "id",
          "type": "uint256"
        }
      ],
      "name": "EventCreated",
      "type": "event"
    },
    {
      "anonymous": false,
      "inputs": [
        {
          "indexed": false,
          "internalType": "uint256",
          "name": "id",
          "type": "uint256"
        }
      ],
      "name": "Withdraw",
      "type": "event"
    },
    {
      "inputs": [],
      "name": "eventId",
      "outputs": [
        {
          "internalType": "uint256",
          "name": "",
          "type": "uint256"
        }
      ],
      "stateMutability": "view",
      "type": "function",
      "constant": true
    },
    {
      "inputs": [
        {
          "internalType": "uint256",
          "name": "",
          "type": "uint256"
        }
      ],
      "name": "fundRaises",
      "outputs": [
        {
          "internalType": "string",
          "name": "title",
          "type": "string"
        },
        {
          "internalType": "string",
          "name": "description",
          "type": "string"
        },
        {
          "internalType": "uint256",
          "name": "goal",
          "type": "uint256"
        },
        {
          "internalType": "uint256",
          "name": "current",
          "type": "uint256"
        },
        {
          "internalType": "uint256",
          "name": "id",
          "type": "uint256"
        },
        {
          "internalType": "bool",
          "name": "status",
          "type": "bool"
        },
        {
          "internalType": "address",
          "name": "creator",
          "type": "address"
        }
      ],
      "stateMutability": "view",
      "type": "function",
      "constant": true
    },
    {
      "inputs": [
        {
          "internalType": "string",
          "name": "title",
          "type": "string"
        },
        {
          "internalType": "string",
          "name": "description",
          "type": "string"
        },
        {
          "internalType": "uint256",
          "name": "goal",
          "type": "uint256"
        }
      ],
      "name": "createEvent",
      "outputs": [],
      "stateMutability": "nonpayable",
      "type": "function"
    },
    {
      "inputs": [
        {
          "internalType": "uint256",
          "name": "idForEvent",
          "type": "uint256"
        }
      ],
      "name": "donate",
      "outputs": [],
      "stateMutability": "payable",
      "type": "function",
      "payable": true
    },
    {
      "inputs": [
        {
          "internalType": "uint256",
          "name": "idForEvent",
          "type": "uint256"
        }
      ],
      "name": "withdraw",
      "outputs": [],
      "stateMutability": "nonpayable",
      "type": "function"
    },
    {
      "inputs": [],
      "name": "getHomeData",
      "outputs": [
        {
          "components": [
            {
              "internalType": "string",
              "name": "title",
              "type": "string"
            },
            {
              "internalType": "uint256",
              "name": "id",
              "type": "uint256"
            }
          ],
          "internalType": "struct FundRaise.HomeCard[]",
          "name": "",
          "type": "tuple[]"
        }
      ],
      "stateMutability": "view",
      "type": "function",
      "constant": true
    }
  ],
  "bytecode": "0x60806040526000805534801561001457600080fd5b50610ef4806100246000396000f3fe6080604052600436106100555760003560e01c8063089cdd0c1461005a5780632c0946c7146100855780632e1a7d4d146100c85780633958f20d146100f15780635555fe171461011c578063f14faf6f14610145575b600080fd5b34801561006657600080fd5b5061006f610161565b60405161007c9190610b63565b60405180910390f35b34801561009157600080fd5b506100ac60048036038101906100a79190610923565b610167565b6040516100bf9796959493929190610ae6565b60405180910390f35b3480156100d457600080fd5b506100ef60048036038101906100ea9190610923565b6102e6565b005b3480156100fd57600080fd5b50610106610402565b6040516101139190610ac4565b60405180910390f35b34801561012857600080fd5b50610143600480360381019061013e9190610898565b61055c565b005b61015f600480360381019061015a9190610923565b6106e6565b005b60005481565b600160205280600052604060002060009150905080600001805461018a90610d1a565b80601f01602080910402602001604051908101604052809291908181526020018280546101b690610d1a565b80156102035780601f106101d857610100808354040283529160200191610203565b820191906000526020600020905b8154815290600101906020018083116101e657829003601f168201915b50505050509080600101805461021890610d1a565b80601f016020809104026020016040519081016040528092919081815260200182805461024490610d1a565b80156102915780601f1061026657610100808354040283529160200191610291565b820191906000526020600020905b81548152906001019060200180831161027457829003601f168201915b5050505050908060020154908060030154908060040154908060050160009054906101000a900460ff16908060050160019054906101000a900473ffffffffffffffffffffffffffffffffffffffff16905087565b600033905060006001600084815260200190815260200160002090508060050160019054906101000a900473ffffffffffffffffffffffffffffffffffffffff1673ffffffffffffffffffffffffffffffffffffffff168273ffffffffffffffffffffffffffffffffffffffff161461035e57600080fd5b8173ffffffffffffffffffffffffffffffffffffffff166108fc82600301549081150290604051600060405180830381858888f193505050501580156103a8573d6000803e3d6000fd5b5060008160050160006101000a81548160ff0219169083151502179055507f5b6b431d4476a211bb7d41c20d1aab9ae2321deee0d20be3d9fc9b1093fa6e3d836040516103f59190610b63565b60405180910390a1505050565b60606000805467ffffffffffffffff81111561042157610420610e53565b5b60405190808252806020026020018201604052801561045a57816020015b610447610756565b81526020019060019003908161043f5790505b50905060005b600054811015610554576000604051806040016040528060016000858152602001908152602001600020600001805461049890610d1a565b80601f01602080910402602001604051908101604052809291908181526020018280546104c490610d1a565b80156105115780601f106104e657610100808354040283529160200191610511565b820191906000526020600020905b8154815290600101906020018083116104f457829003601f168201915b505050505081526020018381525090508083838151811061053557610534610e24565b5b602002602001018190525050808061054c90610d7d565b915050610460565b508091505090565b600080549050600033905060006040518060e00160405280878152602001868152602001858152602001600081526020018481526020016001151581526020018373ffffffffffffffffffffffffffffffffffffffff168152509050806001600085815260200190815260200160002060008201518160000190805190602001906105e8929190610770565b506020820151816001019080519060200190610605929190610770565b5060408201518160020155606082015181600301556080820151816004015560a08201518160050160006101000a81548160ff02191690831515021790555060c08201518160050160016101000a81548173ffffffffffffffffffffffffffffffffffffffff021916908373ffffffffffffffffffffffffffffffffffffffff16021790555090505060016000808282546106a09190610c3a565b925050819055507f748ff5cfd7b66bdd8e21581c2a864756fe7085378c0003183e579bfafba28325836040516106d69190610b63565b60405180910390a1505050505050565b600060016000838152602001908152602001600020905060003490508082600301546107129190610c3a565b82600301819055507fa7035481213199a4d64792e8c2fc7bff2b334e0935d33eaabc063a1164856633816040516107499190610b63565b60405180910390a1505050565b604051806040016040528060608152602001600081525090565b82805461077c90610d1a565b90600052602060002090601f01602090048101928261079e57600085556107e5565b82601f106107b757805160ff19168380011785556107e5565b828001600101855582156107e5579182015b828111156107e45782518255916020019190600101906107c9565b5b5090506107f291906107f6565b5090565b5b8082111561080f5760008160009055506001016107f7565b5090565b600061082661082184610ba3565b610b7e565b90508281526020810184848401111561084257610841610e87565b5b61084d848285610cd8565b509392505050565b600082601f83011261086a57610869610e82565b5b813561087a848260208601610813565b91505092915050565b60008135905061089281610ea7565b92915050565b6000806000606084860312156108b1576108b0610e91565b5b600084013567ffffffffffffffff8111156108cf576108ce610e8c565b5b6108db86828701610855565b935050602084013567ffffffffffffffff8111156108fc576108fb610e8c565b5b61090886828701610855565b925050604061091986828701610883565b9150509250925092565b60006020828403121561093957610938610e91565b5b600061094784828501610883565b91505092915050565b600061095c8383610a69565b905092915050565b61096d81610c90565b82525050565b600061097e82610be4565b6109888185610c07565b93508360208202850161099a85610bd4565b8060005b858110156109d657848403895281516109b78582610950565b94506109c283610bfa565b925060208a0199505060018101905061099e565b50829750879550505050505092915050565b6109f181610ca2565b82525050565b6000610a0282610bef565b610a0c8185610c18565b9350610a1c818560208601610ce7565b610a2581610e96565b840191505092915050565b6000610a3b82610bef565b610a458185610c29565b9350610a55818560208601610ce7565b610a5e81610e96565b840191505092915050565b60006040830160008301518482036000860152610a8682826109f7565b9150506020830151610a9b6020860182610aa6565b508091505092915050565b610aaf81610cce565b82525050565b610abe81610cce565b82525050565b60006020820190508181036000830152610ade8184610973565b905092915050565b600060e0820190508181036000830152610b00818a610a30565b90508181036020830152610b148189610a30565b9050610b236040830188610ab5565b610b306060830187610ab5565b610b3d6080830186610ab5565b610b4a60a08301856109e8565b610b5760c0830184610964565b98975050505050505050565b6000602082019050610b786000830184610ab5565b92915050565b6000610b88610b99565b9050610b948282610d4c565b919050565b6000604051905090565b600067ffffffffffffffff821115610bbe57610bbd610e53565b5b610bc782610e96565b9050602081019050919050565b6000819050602082019050919050565b600081519050919050565b600081519050919050565b6000602082019050919050565b600082825260208201905092915050565b600082825260208201905092915050565b600082825260208201905092915050565b6000610c4582610cce565b9150610c5083610cce565b9250827fffffffffffffffffffffffffffffffffffffffffffffffffffffffffffffffff03821115610c8557610c84610dc6565b5b828201905092915050565b6000610c9b82610cae565b9050919050565b60008115159050919050565b600073ffffffffffffffffffffffffffffffffffffffff82169050919050565b6000819050919050565b82818337600083830152505050565b60005b83811015610d05578082015181840152602081019050610cea565b83811115610d14576000848401525b50505050565b60006002820490506001821680610d3257607f821691505b60208210811415610d4657610d45610df5565b5b50919050565b610d5582610e96565b810181811067ffffffffffffffff82111715610d7457610d73610e53565b5b80604052505050565b6000610d8882610cce565b91507fffffffffffffffffffffffffffffffffffffffffffffffffffffffffffffffff821415610dbb57610dba610dc6565b5b600182019050919050565b7f4e487b7100000000000000000000000000000000000000000000000000000000600052601160045260246000fd5b7f4e487b7100000000000000000000000000000000000000000000000000000000600052602260045260246000fd5b7f4e487b7100000000000000000000000000000000000000000000000000000000600052603260045260246000fd5b7f4e487b7100000000000000000000000000000000000000000000000000000000600052604160045260246000fd5b600080fd5b600080fd5b600080fd5b600080fd5b6000601f19601f8301169050919050565b610eb081610cce565b8114610ebb57600080fd5b5056fea26469706673582212206f201cda2d83b664f243d95cd4094cb293a41d8529788c71489563b281fc182d64736f6c63430008070033",
  "immutableReferences": {},
  "source": "// SPDX-License-Identifier: MIT\npragma solidity ^0.8.0;\n\ncontract FundRaise {\n  uint public eventId = 0;\n  mapping (uint => FundRaiseEvent) public fundRaises;\n\n  struct FundRaiseEvent {\n    string title;\n    string description;\n    uint goal;\n    uint current;\n    uint id;\n    bool status;\n    address creator;\n  }\n\n  struct HomeCard {\n    string title;\n    uint id;\n  }\n\n  event EventCreated(uint id);\n  event Donated(uint amount);\n  event Withdraw(uint id);\n\n  function createEvent(string memory title, string memory description, uint goal) public {\n    uint idForNewEvent = eventId;\n    address eventCreator = msg.sender;\n    FundRaiseEvent memory newFundRaise = FundRaiseEvent(title, description, goal, 0, idForNewEvent, true, eventCreator);\n\n    fundRaises[idForNewEvent] = newFundRaise;\n\n    eventId += 1;\n\n    emit EventCreated(idForNewEvent);\n  }\n\n  function donate(uint idForEvent) public payable {\n    FundRaiseEvent storage fundRaise = fundRaises[idForEvent];\n    uint amount = msg.value;\n\n    fundRaise.current = fundRaise.current + amount;\n\n    emit Donated(amount);\n  }\n\n  function withdraw(uint idForEvent) public {\n    address payable accountWithdrawing = payable(msg.sender);\n    FundRaiseEvent storage fundRaise = fundRaises[idForEvent];\n\n    require(accountWithdrawing == fundRaise.creator);\n\n    accountWithdrawing.transfer(fundRaise.current);\n\n    fundRaise.status = false;\n\n    emit Withdraw(idForEvent);\n  }\n\n  function getHomeData() public view returns (HomeCard[] memory) {\n    HomeCard[] memory cards = new HomeCard[](eventId);\n\n    for (uint i = 0; i < eventId; i++) {\n      HomeCard memory homeCard = HomeCard(fundRaises[i].title, i);\n      cards[i] = homeCard;\n    }\n\n    return cards;\n  }\n}",
  "sourcePath": "C:/Users/bguillen/Documents/sandbox/dapp-pocs/dmvp-projects/fundraise/contracts/FundRaise.sol",
  "compiler": {
    "name": "solc",
    "version": "0.8.7+commit.e28d00a7.Emscripten.clang"
  },
  "schemaVersion": "3.2.3",
  "updatedAt": "2021-09-13T21:46:59.990Z",
  "networkType": "ethereum",
  "devdoc": {
    "kind": "dev",
    "methods": {},
    "version": 1
  },
  "userdoc": {
    "kind": "user",
    "methods": {},
    "version": 1
  }
}